{
  "_format": "hh-sol-artifact-1",
  "contractName": "MyNft",
  "sourceName": "contracts/MyNft.sol",
  "abi": [
    {
      "inputs": [
        {
          "internalType": "string",
          "name": "name_",
          "type": "string"
        },
        {
          "internalType": "string",
          "name": "symbol_",
          "type": "string"
        }
      ],
      "stateMutability": "nonpayable",
      "type": "constructor"
    },
    {
      "anonymous": false,
      "inputs": [
        {
          "indexed": true,
          "internalType": "address",
          "name": "owner",
          "type": "address"
        },
        {
          "indexed": true,
          "internalType": "address",
          "name": "approved",
          "type": "address"
        },
        {
          "indexed": true,
          "internalType": "uint256",
          "name": "tokenId",
          "type": "uint256"
        }
      ],
      "name": "Approval",
      "type": "event"
    },
    {
      "anonymous": false,
      "inputs": [
        {
          "indexed": true,
          "internalType": "address",
          "name": "owner",
          "type": "address"
        },
        {
          "indexed": true,
          "internalType": "address",
          "name": "operator",
          "type": "address"
        },
        {
          "indexed": false,
          "internalType": "bool",
          "name": "approved",
          "type": "bool"
        }
      ],
      "name": "ApprovalForAll",
      "type": "event"
    },
    {
      "anonymous": false,
      "inputs": [
        {
          "indexed": true,
          "internalType": "address",
          "name": "from",
          "type": "address"
        },
        {
          "indexed": true,
          "internalType": "address",
          "name": "to",
          "type": "address"
        },
        {
          "indexed": true,
          "internalType": "uint256",
          "name": "tokenId",
          "type": "uint256"
        }
      ],
      "name": "Transfer",
      "type": "event"
    },
    {
      "inputs": [
        {
          "internalType": "address",
          "name": "to",
          "type": "address"
        },
        {
          "internalType": "uint256",
          "name": "tokenId",
          "type": "uint256"
        }
      ],
      "name": "approve",
      "outputs": [],
      "stateMutability": "nonpayable",
      "type": "function"
    },
    {
      "inputs": [
        {
          "internalType": "address",
          "name": "owner",
          "type": "address"
        }
      ],
      "name": "balanceOf",
      "outputs": [
        {
          "internalType": "uint256",
          "name": "",
          "type": "uint256"
        }
      ],
      "stateMutability": "view",
      "type": "function"
    },
    {
      "inputs": [
        {
          "internalType": "uint256",
          "name": "tokenId",
          "type": "uint256"
        }
      ],
      "name": "getApproved",
      "outputs": [
        {
          "internalType": "address",
          "name": "",
          "type": "address"
        }
      ],
      "stateMutability": "view",
      "type": "function"
    },
    {
      "inputs": [
        {
          "internalType": "address",
          "name": "owner",
          "type": "address"
        },
        {
          "internalType": "address",
          "name": "operator",
          "type": "address"
        }
      ],
      "name": "isApprovedForAll",
      "outputs": [
        {
          "internalType": "bool",
          "name": "",
          "type": "bool"
        }
      ],
      "stateMutability": "view",
      "type": "function"
    },
    {
      "inputs": [
        {
          "internalType": "address",
          "name": "to",
          "type": "address"
        },
        {
          "internalType": "uint256",
          "name": "tokenId",
          "type": "uint256"
        }
      ],
      "name": "mint",
      "outputs": [],
      "stateMutability": "nonpayable",
      "type": "function"
    },
    {
      "inputs": [],
      "name": "name",
      "outputs": [
        {
          "internalType": "string",
          "name": "",
          "type": "string"
        }
      ],
      "stateMutability": "view",
      "type": "function"
    },
    {
      "inputs": [
        {
          "internalType": "uint256",
          "name": "tokenId",
          "type": "uint256"
        }
      ],
      "name": "ownerOf",
      "outputs": [
        {
          "internalType": "address",
          "name": "",
          "type": "address"
        }
      ],
      "stateMutability": "view",
      "type": "function"
    },
    {
      "inputs": [
        {
          "internalType": "address",
          "name": "from",
          "type": "address"
        },
        {
          "internalType": "address",
          "name": "to",
          "type": "address"
        },
        {
          "internalType": "uint256",
          "name": "tokenId",
          "type": "uint256"
        }
      ],
      "name": "safeTransferFrom",
      "outputs": [],
      "stateMutability": "nonpayable",
      "type": "function"
    },
    {
      "inputs": [
        {
          "internalType": "address",
          "name": "from",
          "type": "address"
        },
        {
          "internalType": "address",
          "name": "to",
          "type": "address"
        },
        {
          "internalType": "uint256",
          "name": "tokenId",
          "type": "uint256"
        },
        {
          "internalType": "bytes",
          "name": "data",
          "type": "bytes"
        }
      ],
      "name": "safeTransferFrom",
      "outputs": [],
      "stateMutability": "nonpayable",
      "type": "function"
    },
    {
      "inputs": [
        {
          "internalType": "address",
          "name": "operator",
          "type": "address"
        },
        {
          "internalType": "bool",
          "name": "approved",
          "type": "bool"
        }
      ],
      "name": "setApprovalForAll",
      "outputs": [],
      "stateMutability": "nonpayable",
      "type": "function"
    },
    {
      "inputs": [
        {
          "internalType": "bytes4",
          "name": "interfaceId",
          "type": "bytes4"
        }
      ],
      "name": "supportsInterface",
      "outputs": [
        {
          "internalType": "bool",
          "name": "",
          "type": "bool"
        }
      ],
      "stateMutability": "view",
      "type": "function"
    },
    {
      "inputs": [],
      "name": "symbol",
      "outputs": [
        {
          "internalType": "string",
          "name": "",
          "type": "string"
        }
      ],
      "stateMutability": "view",
      "type": "function"
    },
    {
      "inputs": [
        {
          "internalType": "uint256",
          "name": "tokenId",
          "type": "uint256"
        }
      ],
      "name": "tokenURI",
      "outputs": [
        {
          "internalType": "string",
          "name": "",
          "type": "string"
        }
      ],
      "stateMutability": "view",
      "type": "function"
    },
    {
      "inputs": [
        {
          "internalType": "address",
          "name": "from",
          "type": "address"
        },
        {
          "internalType": "address",
          "name": "to",
          "type": "address"
        },
        {
          "internalType": "uint256",
          "name": "tokenId",
          "type": "uint256"
        }
      ],
      "name": "transferFrom",
      "outputs": [],
      "stateMutability": "nonpayable",
      "type": "function"
    }
  ],
  "bytecode": "0x60806040523480156200001157600080fd5b5060405162002a4138038062002a418339818101604052810190620000379190620001fa565b818181600090816200004a9190620004ca565b5080600190816200005c9190620004ca565b5050505050620005b1565b6000604051905090565b600080fd5b600080fd5b600080fd5b600080fd5b6000601f19601f8301169050919050565b7f4e487b7100000000000000000000000000000000000000000000000000000000600052604160045260246000fd5b620000d08262000085565b810181811067ffffffffffffffff82111715620000f257620000f162000096565b5b80604052505050565b60006200010762000067565b9050620001158282620000c5565b919050565b600067ffffffffffffffff82111562000138576200013762000096565b5b620001438262000085565b9050602081019050919050565b60005b838110156200017057808201518184015260208101905062000153565b60008484015250505050565b6000620001936200018d846200011a565b620000fb565b905082815260208101848484011115620001b257620001b162000080565b5b620001bf84828562000150565b509392505050565b600082601f830112620001df57620001de6200007b565b5b8151620001f18482602086016200017c565b91505092915050565b6000806040838503121562000214576200021362000071565b5b600083015167ffffffffffffffff81111562000235576200023462000076565b5b6200024385828601620001c7565b925050602083015167ffffffffffffffff81111562000267576200026662000076565b5b6200027585828601620001c7565b9150509250929050565b600081519050919050565b7f4e487b7100000000000000000000000000000000000000000000000000000000600052602260045260246000fd5b60006002820490506001821680620002d257607f821691505b602082108103620002e857620002e76200028a565b5b50919050565b60008190508160005260206000209050919050565b60006020601f8301049050919050565b600082821b905092915050565b600060088302620003527fffffffffffffffffffffffffffffffffffffffffffffffffffffffffffffffff8262000313565b6200035e868362000313565b95508019841693508086168417925050509392505050565b6000819050919050565b6000819050919050565b6000620003ab620003a56200039f8462000376565b62000380565b62000376565b9050919050565b6000819050919050565b620003c7836200038a565b620003df620003d682620003b2565b84845462000320565b825550505050565b600090565b620003f6620003e7565b62000403818484620003bc565b505050565b5b818110156200042b576200041f600082620003ec565b60018101905062000409565b5050565b601f8211156200047a576200044481620002ee565b6200044f8462000303565b810160208510156200045f578190505b620004776200046e8562000303565b83018262000408565b50505b505050565b600082821c905092915050565b60006200049f600019846008026200047f565b1980831691505092915050565b6000620004ba83836200048c565b9150826002028217905092915050565b620004d5826200027f565b67ffffffffffffffff811115620004f157620004f062000096565b5b620004fd8254620002b9565b6200050a8282856200042f565b600060209050601f8311600181146200054257600084156200052d578287015190505b620005398582620004ac565b865550620005a9565b601f1984166200055286620002ee565b60005b828110156200057c5784890151825560018201915060208501945060208101905062000555565b868310156200059c578489015162000598601f8916826200048c565b8355505b6001600288020188555050505b505050505050565b61248080620005c16000396000f3fe608060405234801561001057600080fd5b50600436106100ea5760003560e01c80636352211e1161008c578063a22cb46511610066578063a22cb4651461025b578063b88d4fde14610277578063c87b56dd14610293578063e985e9c5146102c3576100ea565b80636352211e146101dd57806370a082311461020d57806395d89b411461023d576100ea565b8063095ea7b3116100c8578063095ea7b31461016d57806323b872dd1461018957806340c10f19146101a557806342842e0e146101c1576100ea565b806301ffc9a7146100ef57806306fdde031461011f578063081812fc1461013d575b600080fd5b6101096004803603810190610104919061177c565b6102f3565b60405161011691906117c4565b60405180910390f35b6101276103d5565b604051610134919061186f565b60405180910390f35b610157600480360381019061015291906118c7565b610467565b6040516101649190611935565b60405180910390f35b6101876004803603810190610182919061197c565b6104ad565b005b6101a3600480360381019061019e91906119bc565b6105c4565b005b6101bf60048036038101906101ba919061197c565b610624565b005b6101db60048036038101906101d691906119bc565b610632565b005b6101f760048036038101906101f291906118c7565b610652565b6040516102049190611935565b60405180910390f35b61022760048036038101906102229190611a0f565b6106d8565b6040516102349190611a4b565b60405180910390f35b61024561078f565b604051610252919061186f565b60405180910390f35b61027560048036038101906102709190611a92565b610821565b005b610291600480360381019061028c9190611c07565b610837565b005b6102ad60048036038101906102a891906118c7565b610899565b6040516102ba919061186f565b60405180910390f35b6102dd60048036038101906102d89190611c8a565b610901565b6040516102ea91906117c4565b60405180910390f35b60007f80ac58cd000000000000000000000000000000000000000000000000000000007bffffffffffffffffffffffffffffffffffffffffffffffffffffffff1916827bffffffffffffffffffffffffffffffffffffffffffffffffffffffff191614806103be57507f5b5e139f000000000000000000000000000000000000000000000000000000007bffffffffffffffffffffffffffffffffffffffffffffffffffffffff1916827bffffffffffffffffffffffffffffffffffffffffffffffffffffffff1916145b806103ce57506103cd82610995565b5b9050919050565b6060600080546103e490611cf9565b80601f016020809104026020016040519081016040528092919081815260200182805461041090611cf9565b801561045d5780601f106104325761010080835404028352916020019161045d565b820191906000526020600020905b81548152906001019060200180831161044057829003601f168201915b5050505050905090565b6000610472826109ff565b6004600083815260200190815260200160002060009054906101000a900473ffffffffffffffffffffffffffffffffffffffff169050919050565b60006104b882610652565b90508073ffffffffffffffffffffffffffffffffffffffff168373ffffffffffffffffffffffffffffffffffffffff1603610528576040517f08c379a000000000000000000000000000000000000000000000000000000000815260040161051f90611d9c565b60405180910390fd5b8073ffffffffffffffffffffffffffffffffffffffff16610547610a4a565b73ffffffffffffffffffffffffffffffffffffffff161480610576575061057581610570610a4a565b610901565b5b6105b5576040517f08c379a00000000000000000000000000000000000000000000000000000000081526004016105ac90611e2e565b60405180910390fd5b6105bf8383610a52565b505050565b6105d56105cf610a4a565b82610b0b565b610614576040517f08c379a000000000000000000000000000000000000000000000000000000000815260040161060b90611ec0565b60405180910390fd5b61061f838383610ba0565b505050565b61062e8282610e99565b5050565b61064d83838360405180602001604052806000815250610837565b505050565b60008061065e836110b6565b9050600073ffffffffffffffffffffffffffffffffffffffff168173ffffffffffffffffffffffffffffffffffffffff16036106cf576040517f08c379a00000000000000000000000000000000000000000000000000000000081526004016106c690611f2c565b60405180910390fd5b80915050919050565b60008073ffffffffffffffffffffffffffffffffffffffff168273ffffffffffffffffffffffffffffffffffffffff1603610748576040517f08c379a000000000000000000000000000000000000000000000000000000000815260040161073f90611fbe565b60405180910390fd5b600360008373ffffffffffffffffffffffffffffffffffffffff1673ffffffffffffffffffffffffffffffffffffffff168152602001908152602001600020549050919050565b60606001805461079e90611cf9565b80601f01602080910402602001604051908101604052809291908181526020018280546107ca90611cf9565b80156108175780601f106107ec57610100808354040283529160200191610817565b820191906000526020600020905b8154815290600101906020018083116107fa57829003601f168201915b5050505050905090565b61083361082c610a4a565b83836110f3565b5050565b610848610842610a4a565b83610b0b565b610887576040517f08c379a000000000000000000000000000000000000000000000000000000000815260040161087e90611ec0565b60405180910390fd5b6108938484848461125f565b50505050565b60606108a4826109ff565b60006108ae6112bb565b905060008151116108ce57604051806020016040528060008152506108f9565b806108d8846112f8565b6040516020016108e992919061201a565b6040516020818303038152906040525b915050919050565b6000600560008473ffffffffffffffffffffffffffffffffffffffff1673ffffffffffffffffffffffffffffffffffffffff16815260200190815260200160002060008373ffffffffffffffffffffffffffffffffffffffff1673ffffffffffffffffffffffffffffffffffffffff16815260200190815260200160002060009054906101000a900460ff16905092915050565b60007f01ffc9a7000000000000000000000000000000000000000000000000000000007bffffffffffffffffffffffffffffffffffffffffffffffffffffffff1916827bffffffffffffffffffffffffffffffffffffffffffffffffffffffff1916149050919050565b610a08816113c6565b610a47576040517f08c379a0000000000000000000000000000000000000000000000000000000008152600401610a3e90611f2c565b60405180910390fd5b50565b600033905090565b816004600083815260200190815260200160002060006101000a81548173ffffffffffffffffffffffffffffffffffffffff021916908373ffffffffffffffffffffffffffffffffffffffff160217905550808273ffffffffffffffffffffffffffffffffffffffff16610ac583610652565b73ffffffffffffffffffffffffffffffffffffffff167f8c5be1e5ebec7d5bd14f71427d1e84f3dd0314c0f7b2291e5b200ac8c7c3b92560405160405180910390a45050565b600080610b1783610652565b90508073ffffffffffffffffffffffffffffffffffffffff168473ffffffffffffffffffffffffffffffffffffffff161480610b595750610b588185610901565b5b80610b9757508373ffffffffffffffffffffffffffffffffffffffff16610b7f84610467565b73ffffffffffffffffffffffffffffffffffffffff16145b91505092915050565b8273ffffffffffffffffffffffffffffffffffffffff16610bc082610652565b73ffffffffffffffffffffffffffffffffffffffff1614610c16576040517f08c379a0000000000000000000000000000000000000000000000000000000008152600401610c0d906120b0565b60405180910390fd5b600073ffffffffffffffffffffffffffffffffffffffff168273ffffffffffffffffffffffffffffffffffffffff1603610c85576040517f08c379a0000000000000000000000000000000000000000000000000000000008152600401610c7c90612142565b60405180910390fd5b610c928383836001611407565b8273ffffffffffffffffffffffffffffffffffffffff16610cb282610652565b73ffffffffffffffffffffffffffffffffffffffff1614610d08576040517f08c379a0000000000000000000000000000000000000000000000000000000008152600401610cff906120b0565b60405180910390fd5b6004600082815260200190815260200160002060006101000a81549073ffffffffffffffffffffffffffffffffffffffff02191690556001600360008573ffffffffffffffffffffffffffffffffffffffff1673ffffffffffffffffffffffffffffffffffffffff168152602001908152602001600020600082825403925050819055506001600360008473ffffffffffffffffffffffffffffffffffffffff1673ffffffffffffffffffffffffffffffffffffffff16815260200190815260200160002060008282540192505081905550816002600083815260200190815260200160002060006101000a81548173ffffffffffffffffffffffffffffffffffffffff021916908373ffffffffffffffffffffffffffffffffffffffff160217905550808273ffffffffffffffffffffffffffffffffffffffff168473ffffffffffffffffffffffffffffffffffffffff167fddf252ad1be2c89b69c2b068fc378daa952ba7f163c4a11628f55a4df523b3ef60405160405180910390a4610e94838383600161140d565b505050565b600073ffffffffffffffffffffffffffffffffffffffff168273ffffffffffffffffffffffffffffffffffffffff1603610f08576040517f08c379a0000000000000000000000000000000000000000000000000000000008152600401610eff906121ae565b60405180910390fd5b610f11816113c6565b15610f51576040517f08c379a0000000000000000000000000000000000000000000000000000000008152600401610f489061221a565b60405180910390fd5b610f5f600083836001611407565b610f68816113c6565b15610fa8576040517f08c379a0000000000000000000000000000000000000000000000000000000008152600401610f9f9061221a565b60405180910390fd5b6001600360008473ffffffffffffffffffffffffffffffffffffffff1673ffffffffffffffffffffffffffffffffffffffff16815260200190815260200160002060008282540192505081905550816002600083815260200190815260200160002060006101000a81548173ffffffffffffffffffffffffffffffffffffffff021916908373ffffffffffffffffffffffffffffffffffffffff160217905550808273ffffffffffffffffffffffffffffffffffffffff16600073ffffffffffffffffffffffffffffffffffffffff167fddf252ad1be2c89b69c2b068fc378daa952ba7f163c4a11628f55a4df523b3ef60405160405180910390a46110b260008383600161140d565b5050565b60006002600083815260200190815260200160002060009054906101000a900473ffffffffffffffffffffffffffffffffffffffff169050919050565b8173ffffffffffffffffffffffffffffffffffffffff168373ffffffffffffffffffffffffffffffffffffffff1603611161576040517f08c379a000000000000000000000000000000000000000000000000000000000815260040161115890612286565b60405180910390fd5b80600560008573ffffffffffffffffffffffffffffffffffffffff1673ffffffffffffffffffffffffffffffffffffffff16815260200190815260200160002060008473ffffffffffffffffffffffffffffffffffffffff1673ffffffffffffffffffffffffffffffffffffffff16815260200190815260200160002060006101000a81548160ff0219169083151502179055508173ffffffffffffffffffffffffffffffffffffffff168373ffffffffffffffffffffffffffffffffffffffff167f17307eab39ab6107e8899845ad3d59bd9653f200f220920489ca2b5937696c318360405161125291906117c4565b60405180910390a3505050565b61126a848484610ba0565b61127684848484611413565b6112b5576040517f08c379a00000000000000000000000000000000000000000000000000000000081526004016112ac90612318565b60405180910390fd5b50505050565b60606040518060400160405280601b81526020017f68747470733a2f2f6170692e616e696d6f2e6172742f76312f6d2f0000000000815250905090565b6060600060016113078461159a565b01905060008167ffffffffffffffff81111561132657611325611adc565b5b6040519080825280601f01601f1916602001820160405280156113585781602001600182028036833780820191505090505b509050600082602001820190505b6001156113bb578080600190039150507f3031323334353637383961626364656600000000000000000000000000000000600a86061a8153600a85816113af576113ae612338565b5b04945060008503611366575b819350505050919050565b60008073ffffffffffffffffffffffffffffffffffffffff166113e8836110b6565b73ffffffffffffffffffffffffffffffffffffffff1614159050919050565b50505050565b50505050565b60006114348473ffffffffffffffffffffffffffffffffffffffff166116ed565b1561158d578373ffffffffffffffffffffffffffffffffffffffff1663150b7a0261145d610a4a565b8786866040518563ffffffff1660e01b815260040161147f94939291906123bc565b6020604051808303816000875af19250505080156114bb57506040513d601f19601f820116820180604052508101906114b8919061241d565b60015b61153d573d80600081146114eb576040519150601f19603f3d011682016040523d82523d6000602084013e6114f0565b606091505b506000815103611535576040517f08c379a000000000000000000000000000000000000000000000000000000000815260040161152c90612318565b60405180910390fd5b805181602001fd5b63150b7a0260e01b7bffffffffffffffffffffffffffffffffffffffffffffffffffffffff1916817bffffffffffffffffffffffffffffffffffffffffffffffffffffffff191614915050611592565b600190505b949350505050565b600080600090507a184f03e93ff9f4daa797ed6e38ed64bf6a1f01000000000000000083106115f8577a184f03e93ff9f4daa797ed6e38ed64bf6a1f01000000000000000083816115ee576115ed612338565b5b0492506040810190505b6d04ee2d6d415b85acef81000000008310611635576d04ee2d6d415b85acef8100000000838161162b5761162a612338565b5b0492506020810190505b662386f26fc10000831061166457662386f26fc10000838161165a57611659612338565b5b0492506010810190505b6305f5e100831061168d576305f5e100838161168357611682612338565b5b0492506008810190505b61271083106116b25761271083816116a8576116a7612338565b5b0492506004810190505b606483106116d557606483816116cb576116ca612338565b5b0492506002810190505b600a83106116e4576001810190505b80915050919050565b6000808273ffffffffffffffffffffffffffffffffffffffff163b119050919050565b6000604051905090565b600080fd5b600080fd5b60007fffffffff0000000000000000000000000000000000000000000000000000000082169050919050565b61175981611724565b811461176457600080fd5b50565b60008135905061177681611750565b92915050565b6000602082840312156117925761179161171a565b5b60006117a084828501611767565b91505092915050565b60008115159050919050565b6117be816117a9565b82525050565b60006020820190506117d960008301846117b5565b92915050565b600081519050919050565b600082825260208201905092915050565b60005b838110156118195780820151818401526020810190506117fe565b60008484015250505050565b6000601f19601f8301169050919050565b6000611841826117df565b61184b81856117ea565b935061185b8185602086016117fb565b61186481611825565b840191505092915050565b600060208201905081810360008301526118898184611836565b905092915050565b6000819050919050565b6118a481611891565b81146118af57600080fd5b50565b6000813590506118c18161189b565b92915050565b6000602082840312156118dd576118dc61171a565b5b60006118eb848285016118b2565b91505092915050565b600073ffffffffffffffffffffffffffffffffffffffff82169050919050565b600061191f826118f4565b9050919050565b61192f81611914565b82525050565b600060208201905061194a6000830184611926565b92915050565b61195981611914565b811461196457600080fd5b50565b60008135905061197681611950565b92915050565b600080604083850312156119935761199261171a565b5b60006119a185828601611967565b92505060206119b2858286016118b2565b9150509250929050565b6000806000606084860312156119d5576119d461171a565b5b60006119e386828701611967565b93505060206119f486828701611967565b9250506040611a05868287016118b2565b9150509250925092565b600060208284031215611a2557611a2461171a565b5b6000611a3384828501611967565b91505092915050565b611a4581611891565b82525050565b6000602082019050611a606000830184611a3c565b92915050565b611a6f816117a9565b8114611a7a57600080fd5b50565b600081359050611a8c81611a66565b92915050565b60008060408385031215611aa957611aa861171a565b5b6000611ab785828601611967565b9250506020611ac885828601611a7d565b9150509250929050565b600080fd5b600080fd5b7f4e487b7100000000000000000000000000000000000000000000000000000000600052604160045260246000fd5b611b1482611825565b810181811067ffffffffffffffff82111715611b3357611b32611adc565b5b80604052505050565b6000611b46611710565b9050611b528282611b0b565b919050565b600067ffffffffffffffff821115611b7257611b71611adc565b5b611b7b82611825565b9050602081019050919050565b82818337600083830152505050565b6000611baa611ba584611b57565b611b3c565b905082815260208101848484011115611bc657611bc5611ad7565b5b611bd1848285611b88565b509392505050565b600082601f830112611bee57611bed611ad2565b5b8135611bfe848260208601611b97565b91505092915050565b60008060008060808587031215611c2157611c2061171a565b5b6000611c2f87828801611967565b9450506020611c4087828801611967565b9350506040611c51878288016118b2565b925050606085013567ffffffffffffffff811115611c7257611c7161171f565b5b611c7e87828801611bd9565b91505092959194509250565b60008060408385031215611ca157611ca061171a565b5b6000611caf85828601611967565b9250506020611cc085828601611967565b9150509250929050565b7f4e487b7100000000000000000000000000000000000000000000000000000000600052602260045260246000fd5b60006002820490506001821680611d1157607f821691505b602082108103611d2457611d23611cca565b5b50919050565b7f4552433732313a20617070726f76616c20746f2063757272656e74206f776e6560008201527f7200000000000000000000000000000000000000000000000000000000000000602082015250565b6000611d866021836117ea565b9150611d9182611d2a565b604082019050919050565b60006020820190508181036000830152611db581611d79565b9050919050565b7f4552433732313a20617070726f76652063616c6c6572206973206e6f7420746f60008201527f6b656e206f776e6572206f7220617070726f76656420666f7220616c6c000000602082015250565b6000611e18603d836117ea565b9150611e2382611dbc565b604082019050919050565b60006020820190508181036000830152611e4781611e0b565b9050919050565b7f4552433732313a2063616c6c6572206973206e6f7420746f6b656e206f776e6560008201527f72206f7220617070726f76656400000000000000000000000000000000000000602082015250565b6000611eaa602d836117ea565b9150611eb582611e4e565b604082019050919050565b60006020820190508181036000830152611ed981611e9d565b9050919050565b7f4552433732313a20696e76616c696420746f6b656e2049440000000000000000600082015250565b6000611f166018836117ea565b9150611f2182611ee0565b602082019050919050565b60006020820190508181036000830152611f4581611f09565b9050919050565b7f4552433732313a2061646472657373207a65726f206973206e6f74206120766160008201527f6c6964206f776e65720000000000000000000000000000000000000000000000602082015250565b6000611fa86029836117ea565b9150611fb382611f4c565b604082019050919050565b60006020820190508181036000830152611fd781611f9b565b9050919050565b600081905092915050565b6000611ff4826117df565b611ffe8185611fde565b935061200e8185602086016117fb565b80840191505092915050565b60006120268285611fe9565b91506120328284611fe9565b91508190509392505050565b7f4552433732313a207472616e736665722066726f6d20696e636f72726563742060008201527f6f776e6572000000000000000000000000000000000000000000000000000000602082015250565b600061209a6025836117ea565b91506120a58261203e565b604082019050919050565b600060208201905081810360008301526120c98161208d565b9050919050565b7f4552433732313a207472616e7366657220746f20746865207a65726f2061646460008201527f7265737300000000000000000000000000000000000000000000000000000000602082015250565b600061212c6024836117ea565b9150612137826120d0565b604082019050919050565b6000602082019050818103600083015261215b8161211f565b9050919050565b7f4552433732313a206d696e7420746f20746865207a65726f2061646472657373600082015250565b60006121986020836117ea565b91506121a382612162565b602082019050919050565b600060208201905081810360008301526121c78161218b565b9050919050565b7f4552433732313a20746f6b656e20616c7265616479206d696e74656400000000600082015250565b6000612204601c836117ea565b915061220f826121ce565b602082019050919050565b60006020820190508181036000830152612233816121f7565b9050919050565b7f4552433732313a20617070726f766520746f2063616c6c657200000000000000600082015250565b60006122706019836117ea565b915061227b8261223a565b602082019050919050565b6000602082019050818103600083015261229f81612263565b9050919050565b7f4552433732313a207472616e7366657220746f206e6f6e20455243373231526560008201527f63656976657220696d706c656d656e7465720000000000000000000000000000602082015250565b60006123026032836117ea565b915061230d826122a6565b604082019050919050565b60006020820190508181036000830152612331816122f5565b9050919050565b7f4e487b7100000000000000000000000000000000000000000000000000000000600052601260045260246000fd5b600081519050919050565b600082825260208201905092915050565b600061238e82612367565b6123988185612372565b93506123a88185602086016117fb565b6123b181611825565b840191505092915050565b60006080820190506123d16000830187611926565b6123de6020830186611926565b6123eb6040830185611a3c565b81810360608301526123fd8184612383565b905095945050505050565b60008151905061241781611750565b92915050565b6000602082840312156124335761243261171a565b5b600061244184828501612408565b9150509291505056fea2646970667358221220f4447ec40898c25a9ec0c5824cf8bc1c5d2aee53b0c9858b747acd04f844008664736f6c63430008180033",
  "linkReferences": {},
  "deployedLinkReferences": {}
}